{
  "contractName": "Lottery",
  "abi": [
    {
      "constant": true,
      "inputs": [
        {
          "name": "",
          "type": "uint256"
        }
      ],
      "name": "participants",
      "outputs": [
        {
          "name": "",
          "type": "address"
        }
      ],
      "payable": false,
      "stateMutability": "view",
      "type": "function",
      "signature": "0x35c1d349"
    },
    {
      "constant": true,
      "inputs": [],
      "name": "manager",
      "outputs": [
        {
          "name": "",
          "type": "address"
        }
      ],
      "payable": false,
      "stateMutability": "view",
      "type": "function",
      "signature": "0x481c6a75"
    },
    {
      "inputs": [],
      "payable": false,
      "stateMutability": "nonpayable",
      "type": "constructor",
      "signature": "constructor"
    },
    {
      "constant": false,
      "inputs": [],
      "name": "receive",
      "outputs": [],
      "payable": true,
      "stateMutability": "payable",
      "type": "function",
      "signature": "0xa3e76c0f"
    },
    {
      "constant": true,
      "inputs": [],
      "name": "getBalance",
      "outputs": [
        {
          "name": "",
          "type": "uint256"
        }
      ],
      "payable": false,
      "stateMutability": "view",
      "type": "function",
      "signature": "0x12065fe0"
    },
    {
      "constant": true,
      "inputs": [],
      "name": "random",
      "outputs": [
        {
          "name": "",
          "type": "uint256"
        }
      ],
      "payable": false,
      "stateMutability": "view",
      "type": "function",
      "signature": "0x5ec01e4d"
    },
    {
      "constant": true,
      "inputs": [],
      "name": "selectWinner",
      "outputs": [
        {
          "name": "",
          "type": "address"
        }
      ],
      "payable": false,
      "stateMutability": "view",
      "type": "function",
      "signature": "0x33a99e04"
    }
  ],
  "bytecode": "0x608060405234801561001057600080fd5b50336000806101000a81548173ffffffffffffffffffffffffffffffffffffffff021916908373ffffffffffffffffffffffffffffffffffffffff1602179055506104ae806100606000396000f3fe608060405260043610610078576000357c0100000000000000000000000000000000000000000000000000000000900463ffffffff16806312065fe01461007d57806333a99e04146100a857806335c1d349146100ff578063481c6a751461017a5780635ec01e4d146101d1578063a3e76c0f146101fc575b600080fd5b34801561008957600080fd5b50610092610206565b6040518082815260200191505060405180910390f35b3480156100b457600080fd5b506100bd610280565b604051808273ffffffffffffffffffffffffffffffffffffffff1673ffffffffffffffffffffffffffffffffffffffff16815260200191505060405180910390f35b34801561010b57600080fd5b506101386004803603602081101561012257600080fd5b8101908080359060200190929190505050610359565b604051808273ffffffffffffffffffffffffffffffffffffffff1673ffffffffffffffffffffffffffffffffffffffff16815260200191505060405180910390f35b34801561018657600080fd5b5061018f610397565b604051808273ffffffffffffffffffffffffffffffffffffffff1673ffffffffffffffffffffffffffffffffffffffff16815260200191505060405180910390f35b3480156101dd57600080fd5b506101e66103bc565b6040518082815260200191505060405180910390f35b610204610403565b005b60008060009054906101000a900473ffffffffffffffffffffffffffffffffffffffff1673ffffffffffffffffffffffffffffffffffffffff163373ffffffffffffffffffffffffffffffffffffffff1614151561026357600080fd5b3073ffffffffffffffffffffffffffffffffffffffff1631905090565b60008060009054906101000a900473ffffffffffffffffffffffffffffffffffffffff1673ffffffffffffffffffffffffffffffffffffffff163373ffffffffffffffffffffffffffffffffffffffff161415156102dd57600080fd5b6003600180549050101515156102f257600080fd5b60006102fc6103bc565b90506000806001805490508381151561031157fe5b06905060018181548110151561032357fe5b9060005260206000200160009054906101000a900473ffffffffffffffffffffffffffffffffffffffff16915081935050505090565b60018181548110151561036857fe5b906000526020600020016000915054906101000a900473ffffffffffffffffffffffffffffffffffffffff1681565b6000809054906101000a900473ffffffffffffffffffffffffffffffffffffffff1681565b600044426001805490506040516020018084815260200183815260200182815260200193505050506040516020818303038152906040528051906020012060019004905090565b670de0b6b3a7640000341015151561041a57600080fd5b60013390806001815401808255809150509060018203906000526020600020016000909192909190916101000a81548173ffffffffffffffffffffffffffffffffffffffff021916908373ffffffffffffffffffffffffffffffffffffffff1602179055505056fea165627a7a72305820f7d99e483a5112d61315097e3438f280d092c166162e1e38a4017cf5b2497b580029",
  "source": "// SPDX-License-Identifier: MIT\r\n\r\npragma solidity >=0.4.0 <0.9.0;\r\n\r\ncontract Lottery {\r\n    address public manager;\r\n    address payable[] public participants;\r\n\r\n    constructor() public {\r\n        manager=msg.sender;\r\n    }\r\n\r\n    function receive() external payable {\r\n        require(msg.value >= 1 ether);\r\n        participants.push(msg.sender);\r\n    }\r\n\r\n    function getBalance() public view returns(uint) {\r\n        require(msg.sender == manager);\r\n        return address(this).balance;\r\n    }\r\n\r\n    function random() public view returns(uint) {\r\n        return uint(keccak256(abi.encodePacked(block.difficulty, block.timestamp, participants.length)));\r\n    }\r\n\r\n    function selectWinner() public view returns(address) {\r\n        require(msg.sender==manager);\r\n        require(participants.length>=3);\r\n        uint r = random();\r\n        address payable winner;\r\n        uint index = r % participants.length;\r\n        winner = participants[index];\r\n        return winner;\r\n    }\r\n}",
  "sourcePath": "C:/Users/jyoti/projects/LOTTERY/contracts/Lottery.sol",
  "compiler": {
    "name": "solc",
    "version": "0.5.0+commit.1d4f565a.Emscripten.clang"
  },
  "schemaVersion": "3.0.2",
  "updatedAt": "2022-07-06T06:33:43.784Z",
  "devdoc": {
    "methods": {}
  },
  "userdoc": {
    "methods": {}
  }
}